:040000000EEF06F009
:08000800046ED8CF05F0E0CF33
:1000100006F00001E9CF0CF0EACF07F0E1CF08F0DD
:10002000E2CF09F0D9CF0AF0DACF0BF0F3CF12F01C
:10003000F4CF13F0FACF14F000C00EF001C00FF0AF
:1000400002C010F003C011F0F2AA2AEF00F0F2B4DF
:10005000CFEF00F09DAA30EF00F09EBA8DEF00F0D8
:100060000EC000F00FC001F010C002F011C003F08C
:100070000CC0E9FF07C0EAFF078E08C0E1FF09C016
:10008000E2FF0AC0D9FF0BC0DAFF12C0F3FF13C0B2
:10009000F4FF14C0FAFF045006C0E0FF05C0D8FF0B
:1000A0001000030E01013B5F0AE3010EEA6E3B0EF6
:1000B000E96EEF5004E001D000D0EF2EFDD7000133
:1000C0006BEF00F0400E0101396F020E3A6F9B0E8C
:1000D0003B6F0001E6D701013A2FF9D7392F03D042
:1000E000166A016A17D09EAAF0D7AB50166EAE50B2
:1000F000016E080E3B6F3A6B0150006E00503A1BC8
:1001000000323B2FFBD7010E3A15161A16A202D069
:10011000AB98AB88000196EF00F0756A000E9EBAAE
:10012000010E010839E1020E9A6FCCD701C075F0BB
:100130008B5304E17550030801E02ED0036A8B5104
:10014000170FE96E000E0320EA6E75C0EFFF010E77
:100150009F6F8B2B8B5101081FE2020E18248B5DC1
:100160001AE3000E9EBA010E000A15E18A5313E14C
:10017000EA6A3F0EE96EE26A170EE16E8B51016E7C
:1001800004E0E6CFEEFF012EFCD7010E8A6F8BC094
:100190008CF08B6B01D08A6B9E9A30EF00F03C0E96
:1001A000D76EAF0ED66E945301E09407955301E0DD
:1001B0009507965302E1975304E09651D8B49707F8
:1001C0009607985302E1995304E09851D8B49907DF
:1001D00098079B5302E19C5304E09B51D8B49C07C1
:1001E0009B079D5302E19E5304E09D51D8B49E07A6
:1001F0009D079A5304E09A079A5301E18B6BF2949E
:1002000030EF00F0016603D0026602D007D0022A68
:1002100000C0EEFF012EFCD7022EFAD71200EA6AC8
:10022000170EE96E006A026A280E016EEBDF8B6B17
:100230003DEF06F0EA6A170EE96E006A026A140ED4
:10024000016EE0DF3FEF06F0010EEA6E340EE96E5C
:10025000EF500DE0060E016E006A002EFED7012E53
:10026000FBD77B0E006E002EFED7EF2EF3D71200C9
:1002700001010C6B010E0A25E96E000E0B21EA6EDE
:10028000010EEF240E6F010E0D6F0E510D5D0CE28D
:100290000D510A25016E000E0B2101C0E9FFEA6E27
:1002A000EF500C1B0D2BF1D70CC101F00001120017
:1002B00001010B6B3F0E0A6F0001DADF01C002F192
:1002C000010E4024036A3F0FE96E000E0320EA6E20
:1002D000EF500101025D03E0E10E016E39D24150A1
:1002E000100A00012AE0010A53E0030AD8B47BD0C7
:1002F000010AD8B4B0D0330AD8B4E5D0600AD8B473
:10030000FED0C00AD8B40ED1C10AD8B426D1030A8F
:10031000D8B436D1060AD8B466D1070AD8B4A4D165
:10032000130AD8B4D2D1200AD8B4DED1220AD8B464
:10033000EAD1320AD8B4F9D108D28C51090805E0C3
:10034000E40E016E010104D2000142521CE0425051
:10035000030819E342C0AAF0EA6AA00EE96EE26A55
:10036000430EE16E040E016EE6CFEEFF012EFCD7C8
:10037000060E916F010E926F8F6FA00E016E01013C
:10038000E7D105D00001E30E016E0101E1D1E0D11A
:100390008C51090805E0E40E016E0101D9D100017C
:1003A00042521CE04250030819E342C0AAF0EA6A34
:1003B000A00EE96EE26A430EE16E040E016EE6CF16
:1003C000EEFF012EFCD7070E916F010E926F8F6F1B
:1003D000A00E016E0101BCD105D00001E30E016E3B
:1003E0000101B6D1B5D18C51130805E0E40E016EC0
:1003F0000101AED10001425229E04250030826E338
:1004000042C0AAF0EA6AA40EE96EE26A430EE16E07
:10041000040E016EE6CFEEFF012EFCD7EA6A670EEE
:10042000E96EE26A470EE16E0A0E016EE6CFEEFF5C
:10043000012EFCD7060E916F010E926F020E8F6F88
:10044000A00E016E010184D105D00001E30E016E02
:1004500001017ED17DD18C51130805E0E40E016EBF
:10046000010176D10001425229E04250030826E3FF
:1004700042C0AAF0EA6AA40EE96EE26A430EE16E97
:10048000040E016EE6CFEEFF012EFCD7EA6A670E7E
:10049000E96EE26A470EE16E0A0E016EE6CFEEFFEC
:1004A000012EFCD7070E916F010E926F020E8F6F17
:1004B000A00E016E01014CD105D00001E30E016ECA
:1004C000010146D145D18C51050805E0E40E016ECD
:1004D00001013ED1000142520DE0425003080AE3FF
:1004E00042C0ABF0010EAC6FA00E016E010130D125
:1004F00005D00001E30E016E01012AD129D18C51F2
:10050000060805E0E40E016E010122D1000142C09F
:10051000B0F043C0AFF0320E916FA00E016E01013A
:1005200017D116D18C510E0805E0E40E016E0101C1
:100530000FD10001EA6A670EE96EE26A420EE16ECF
:100540000A0E016EE6CFEEFF012EFCD70A0E916F68
:10055000A00E016E0101FCD0FBD08C51060805E015
:10056000E40E016E0101F4D0000142C0B0F043C0BE
:10057000AFF0330E916FA00E016E0101E9D0E8D00B
:100580008C510A0805E0E40E016E0101E1D0000182
:100590004250070805E2E30E016E0101D9D00001C7
:1005A00042C0A8F043C0A9F0EA6AA40EE96EE26A6C
:1005B000440EE16E040E016EE6CFEEFF012EFCD775
:1005C000EA6AA00EE96EE26A440EE16E040E016E64
:1005D000E6CFEEFF012EFCD7080E916FA00E016E44
:1005E0000101B6D0B5D08C51140805E0E40E016EBF
:1005F0000101AED000014250070805E2E30E016E92
:100600000101A6D0000142C0A8F043C0A9F0EA6AE7
:10061000A40EE96EE26A440EE16E040E016EE6CFAE
:10062000EEFF012EFCD7EA6AA00EE96EE26A440EE4
:10063000E16E040E016EE6CFEEFF012EFCD7EA6AF2
:10064000670EE96EE26A480EE16E0A0E016EE6CFB1
:10065000EEFF012EFCD7080E916F020E8F6FA00ED9
:10066000016E010175D074D08C51130805E0E40EC1
:10067000016E01016DD000014250070805E2E30E52
:10068000016E010165D0000142C0A8F0EA6AA40E23
:10069000E96EE26A430EE16E040E016EE6CFEEFFF4
:1006A000012EFCD7EA6A670EE96EE26A470EE16E38
:1006B0000A0E016EE6CFEEFF012EFCD70B0E916FF6
:1006C000A00E016E010144D043D08C51040805E016
:1006D000E40E016E01013CD00001010EAD6FA00ED1
:1006E000016E010135D034D08C51040805E0E40ED0
:1006F000016E01012DD00001010EAE6FA00E016E42
:10070000010126D025D08C51050805E0E40E016ECC
:1007100001011ED0000142C0B1F0090E916F926B31
:10072000A00E016E010114D013D08C51040805E015
:10073000E40E016E01010CD00001010EB46FA00E99
:10074000016E010105D004D00001E20E016E01012D
:10075000000197EF06F0080E016E01010B6B0AC154
:1007600000F000500B1B0032012EFBD79EA8FED7D5
:10077000FE0EAC160BB1AC800AC1ADFF0001C4EF98
:1007800003F009C10AF1E7D7020E0101346F00013D
:100790005BDD1200030E766E776E02C178F003C146
:1007A00079F001010B6B760E0A6F000161DD01C06B
:1007B0007AF00101046B0451040810E3036A045148
:1007C000760FE96E000E0320EA6EEFCF05F105C14A
:1007D00009F10001D6DF0101042BEDD70001120061
:1007E0003C0E0101036F025302E1035310E0640E5B
:1007F0000001956F955301E0FDD7010103070353F5
:1008000005E10207025302E03C0E036FECD7000142
:10081000AFEF06F0030E766E01010625776E02C17A
:1008200078F003C179F0EA6A7A0EE96E05C1E2FF59
:1008300004C1E1FF0651016E04E0E6CFEEFF012E98
:10084000FCD7040E0625036A760F016E000E032204
:1008500001C008F103C009F10B6B760E0A6F0001AD
:1008600007DD09C1EAFF08C1E9FF01C0EFFF050E7E
:1008700001010627076B0651075D10E2036A075165
:10088000760FE96E000E0320EA6EEFCF08F108C183
:1008900009F1000176DF0101072BEDD700011200FD
:1008A0000101356B3451355D1AE235513325376F0F
:1008B000F2CF38F1F29E37C1A9FFA69CA69EA68072
:1008C000A85038BFF28E366F036A35513125E96E74
:1008D00032510320EA6E36C1EFFF352BE3D700011A
:1008E00012000101336B3251335D2CE2335131255B
:1008F000346F33512F25016E000E3021036E0150ED
:10090000E96E03C0EAFFEFCF35F1F250006EF29EC0
:1009100034C1A9FF35C1A8FFA69CA69EA6840F01DD
:10092000550EA76EAA0EA76EA682A6B2FED7A694F3
:100930000050F2120A0E0101346F000185DC010142
:10094000332BD1D70001120067C006F170C007F148
:1009500068C01EF16AC01FF16CC020F16EC021F1A9
:1009600021C174F0716A726A736A20C12DF10101AC
:100970002B6B2C6B2E6B2B5171262C5172222D510F
:1009800073222E5174221FC12CF12B6B2D6B2E6BF9
:100990002B5171262C5172222D5173222E5174220B
:1009A0002E6B2D6B2C6B1EC12BF12B5171262C51F4
:1009B00072222D5173222E51742221516D5C226FAF
:1009C0002051695C236F1F516F5C246F1E516B5C5B
:1009D000256F010E03252F6F000E0421306F010ECD
:1009E000326F140E316F2FC133F1040E346F0001DA
:1009F00057DF14C113F10101106B116B126B15C19C
:100A00002DF12B6B2C6B2E6B2B5110272C5111239E
:100A10002D5112232E51132316C12CF12B6B2D6B4C
:100A20002E6B2B5110272C5111232D5112232E5197
:100A300013232E6B2D6B2C6B17C12BF12B51102711
:100A40002C5111232D5112232E511323EA6AA00E8B
:100A5000E96E11C1E2FF10C1E1FF040E016EE6CFA5
:100A6000EEFF012EFCD72251202514251525056FF8
:100A70000651055D03E00A0E016EADD022511F251F
:100A800016251725056F0751055D03E00A0E016E57
:100A9000A2D0221F231F241F251F25C10BF1086B85
:100AA000096B0A6B24C12DF12B6B2C6B2E6B2B5118
:100AB00008272C5109232D510A232E510B2323C122
:100AC0002CF12B6B2D6B2E6B2B5108272C510923EE
:100AD0002D510A232E510B232E6B2D6B2C6B22C113
:100AE0002BF12B5108272C5109232D510A232E516C
:100AF0000B23105108271151092312510A231351B6
:100B00000B23010E326F140E316F230E336F050E5F
:100B1000346F0001C5DE010114533EE115C10FF130
:100B20000C6B0D6B0E6B16C12DF12B6B2C6B2E6BA2
:100B30002B510C272C510D232D510E232E510F23F9
:100B400017C12CF12B6B2D6B2E6B2B510C272C51BD
:100B50000D232D510E232E510F232E6B2D6B2C6B3D
:100B600018C12BF12B510C272C510D232D510E2385
:100B70002E510F230B510F5D0FE30BE10A510E5D58
:100B80000BE307E109510D5D07E303E108510C5D3B
:100B900003E30B0E016E1FD0266B2F6B306B316B96
:100BA0000BC127F12F6B306B326B0AC128F12F6B11
:100BB000316B326B09C129F108C12AF1010E306F86
:100BC000260E2F6F230E316F050E326F000189DE66
:100BD000010E016E0101000112000101076B0651B7
:100BE000075D18E2036A07510225E96E03510320ED
:100BF000EA6EEFCF08F1036A07510425E96E05514B
:100C00000320EA6EEF50085D03E0000E016E04D091
:100C1000072BE5D7010E016E00011200F86AD09E85
:100C2000078E166A810EAF6EE60EAC6ED00EAB6EFE
:100C3000C180C182C184C196906B010E916F926B8D
:100C4000B26BB36BD19094908B8094928B8294947E
:100C50008B8494968B8694988B98756A8B6B8C6B2F
:100C60008D6B9A6B8A6BAA6BAB6BAC6BB46BAD6B19
:100C7000AE6BB16BF56B0FEF01F01AEF01F08E6BFD
:100C8000949A8B8A939E8A8E020E0101026FFA0E4D
:100C9000346F000124EC01F00101022FF8D7949A7F
:100CA0008B9AC80E346F000124EC01F0949A8B8A61
:100CB000C80E0101346F000124EC01F0949A8B9A64
:100CC000C80E0101346F000124EC01F0949A8B8A64
:100CD000939E8A9E9D8AC00EF212880ED56E3C0E9F
:100CE000D76EAF0ED66EF28A9E6B320E9D6F9F6BE3
:100CF000936B9353D8A4F6EF0BF09D530DE19E53E5
:100D00000BE19F2D04D09F6B949A8B7A02D0949A1A
:100D10008B8A9E6B320E9D6F912D05D0010E906FC8
:100D2000040E916FE6D78A2D0FD058EF01F001C065
:100D3000B5F08C6BB551A00807E041C002F1B5C019
:100D400003F128DD8A6BD5D7B251020803E3B35112
:100D5000020805E2050E0101026F000141D5AD2D2B
:100D600012D0010EC36FC46F8A6B500E0101026F67
:100D7000A00E036F056BC30E046F020E066F000119
:100D800049DDAD6BB6D7AE2D11D0C36BC46B8A6B8A
:100D9000700E0101026FA00E036F056BC30E046F8E
:100DA000020E066F000136DDAE6BA3D79151090824
:100DB00020E1090E906F92530FE18A6BB1C094F05D
:100DC00041C002F1A00E0101036F0001E3DC280E17
:100DD000926F939E8A8E8DD79251280809E1945381
:100DE00006E1939E8A9E040E916F926B82D781D703
:100DF00080D7AC2D3ED0C16BAB2D10D0928280A29B
:100E000001D0C181928080A001D0C183938281A250
:100E100001D0C189938081A001D0C18BAB51020860
:100E200010E1928680A601D0C181928480A401D075
:100E3000C183938681A601D0C189938481A401D006
:100E4000C18BAB51030804E1928A80AA01D0C18111
:100E50008A6BC1C0C3F0200E0101026FA00E036FA8
:100E6000056BC30E046F010E066F0001D3DCAC6B83
:100E700040D7B42D17D0C16B928880A802D0010E44
:100E8000C16F8A6BC1C0C3F0600E0101026FA00E7A
:100E9000036F056BC30E046F010E066F0001BADC11
:100EA000B46B27D79151320821E1F250006EF29EC7
:100EB000B0C0A9FFAFC0A8FFA69CA69EA6840F0144
:100EC000550EA76EAA0EA76EA682A6B2FED7A6944E
:100ED0000050F21200018A6B41C002F1A00E010124
:100EE000036F000157DC040E916F03D79151330853
:100EF0002EE1C26BAF51C25D1AE2036AC251C30F49
:100F0000E96E000E0320EA6EC251B0250101046FA4
:100F1000F2CF05F1F29E04C1A9FFA69CA69EA68071
:100F2000A85005BFF28EEF6E0001C22BE3D7410E31
:100F30000101026FA00E036F056BC30E046FAFC0FB
:100F400006F1000167DC8A6B040E916FD2D69151D5
:100F50000A0833E10101046B1E0E036F0001F4DC8B
:100F600001C0B5F0B52D02D0B36B04D0B351F90870
:100F700001E3B22BB5510A0808E141C002F1F30EBA
:100F80000101036F000106DC14D0B5510B0809E123
:100F900041C002F1F40E0101036F0001CAEC03F03D
:100FA00008D041C002F1A00E0101036F0001CAEC9C
:100FB00003F08A6B040E916F9CD691510808D8A457
:100FC000F9D0080E906F040E916FA851050DF3CF64
:100FD00002F10101326BB60E316F02C133F1050E21
:100FE000346F00015DDCB6C0C0F08F510208D8A498
:100FF00086D0A851050DF3CF02F10101046B02C1A7
:1010000003F10001A1DC01C0B5F0C03D01D01DD04D
:10101000B52D01D01AD08A6BB5510A0808E141C03C
:1010200002F1F30E0101036F0001CAEC03F0B551A8
:101030000B0808E141C002F1F40E0101036F000149
:10104000CAEC03F0040E916F54D6A4C0F9F0F66B0D
:10105000F76BF86BA5C000F1FE6BFF6B0101016B34
:101060000001FE51F627FF51F72301010051000155
:10107000F823010101510001F923A6C0FFF0FE6B26
:101080000101006B016B0001FE51F627FF51F723B0
:10109000010100510001F823010101510001F92370
:1010A0000101016B006B0001FF6BA7C0FEF0FE5158
:1010B000F627FF51F723010100510001F823010138
:1010C00001510001F9237150F65F7250F75B7350C4
:1010D000F85B7450F95BF9C0A4F0F8C0A5F0F7C054
:1010E000A6F0F6C0A7F0EA6AA00EE96EE26AA40EC6
:1010F000E16E040E016EE6CFEEFF012EFCD7C0516B
:10110000800B31E10101036BB70E026F056BA00E7E
:10111000046F040E066F000160DD01C0B5F0B52D4F
:1011200001D00ED08A6B41C002F1F20E0101036FB3
:101130000001CAEC03F0B251F90801E3B22BD9D592
:10114000B26BA9C0B6F0A851050DF3CF02F10101B1
:10115000306BB60E2F6F02C131F1010E326F0001FC
:1011600071EC04F01DD0A9C0B6F0EA6AB70EE96EC2
:10117000E26AA40EE16E040E016EE6CFEEFF012ED0
:10118000FCD7A851050DF3CF02F10101306BB60E6B
:101190002F6F02C131F1050E326F000171EC04F0C6
:1011A0008A6B41C002F1A00E0101036F0001CAEC7D
:1011B00003F09FD591510B08D8A4FBD00B0E906F74
:1011C000040E916FA851050DF3CF02F10101326BAE
:1011D000B60E316F02C133F1050E346F000150ECD1
:1011E00004F0B6C0C0F0C051020B1CE1A851050DBF
:1011F000F350010F0101026F306BA40E2F6F02C17B
:1012000031F1040E326F000171EC04F08A6B040EB0
:10121000916F41C002F1A00E0101036F0001CAEC01
:1012200003F067D5C051040BD8A49AD0A851050D7E
:10123000F3CF02F10101046B02C103F10001A4EC40
:1012400004F001C0B5F0B52D01D01ED08A6BB551A8
:101250000A0808E141C002F1F30E0101036F000129
:10126000CAEC03F0B5510B0808E141C002F1F40EDD
:101270000101036F0001CAEC03F0040E916FB2513B
:10128000F90801E3B22B35D5B26BA4C0F9F0F66BC7
:10129000F76BF86BA5C000F1FE6BFF6B0101016BF2
:1012A0000001FE51F627FF51F72301010051000113
:1012B000F823010101510001F923A6C0FFF0FE6BE4
:1012C0000101006B016B0001FE51F627FF51F7236E
:1012D000010100510001F823010101510001F9232E
:1012E0000101016B006B0001FF6BA7C0FEF0FE5116
:1012F000F627FF51F723010100510001F8230101F6
:1013000001510001F9237150F65F7250F75B735081
:10131000F85B7450F95BF9C0FAF0F8C0FBF0F7C065
:10132000FCF0F6C0FDF0A851050DF350010F0101CE
:10133000026F306BFA0E2F6F02C131F1040E326F63
:10134000000171EC04F08A6B040E916F41C002F150
:10135000A00E0101036F0001CAEC03F0CAD41DD036
:10136000A9C0B6F0EA6AB70EE96EE26AA40EE16EB1
:10137000040E016EE6CFEEFF012EFCD7A851050D3D
:10138000F3CF02F10101306BB60E2F6F02C131F1C4
:10139000050E326F000171EC04F08A6B040E916F40
:1013A00041C002F1F10E0101036F0001CAEC03F02C
:1013B000A0D491510608D8A409D1060E906F922DA1
:1013C000CCD08F51020874E10101046B1E0E036F33
:1013D0000001A4EC04F001C0B5F0B52D01D01AD085
:1013E0008A6BB5510A0808E141C002F1F30E010110
:1013F000036F0001CAEC03F0B5510B0808E141C0CE
:1014000002F1F40E0101036F0001CAEC03F0040EB7
:10141000916F6FD4A4C0F9F0F66BF76BF86BA5C0B1
:1014200000F1FE6BFF6B0101016B0001FE51F6271D
:10143000FF51F723010100510001F823010101517F
:101440000001F923A6C0FFF0FE6B0101006B016BE8
:101450000001FE51F627FF51F72301010051000161
:10146000F823010101510001F9230101016B006B17
:101470000001FF6BA7C0FEF0FE51F627FF51F723D6
:10148000010100510001F823010101510001F9237C
:101490007150F65F7250F75B7350F85B7450F95BF4
:1014A000F9C0A0F0F8C0A1F0F7C0A2F0F6C0A3F018
:1014B000010EAA5D050DF3CF02F10101326BB60EEC
:1014C000316F02C133F1050E346F000150EC04F0AE
:1014D000B6C0C0F0C051800B03E1C051080B0DE055
:1014E0008A6B41C002F1F10E0101036F0001CAECE9
:1014F00003F0040E916F79EF06F00101036BB70E54
:10150000026F056BA00E046F040E066F0001EDEC78
:1015100005F001C0B5F0B52D01D011D08A6B41C0E6
:1015200002F1F20E0101036F0001CAEC03F0B251A7
:10153000F90801E3B22B040E916F79EF06F0B26B5C
:101540008A6B41C002F1A00E0101036F0001CAECD9
:1015500003F0140E926F79EF06F0925114081CE11B
:10156000AA2D05D094908B909C6BC80E9B6FAA51AE
:10157000020805E194948B949C6BC80E9B6FAA5152
:10158000030806E194988B88010E9C6F2C0E9B6FCC
:10159000150E926F79EF06F09251150817E19B53E3
:1015A00013E19C5311E1AA2D02D094908B80AA5193
:1015B000020802E194948B84AA51030802E19498F2
:1015C0008B98040E916F926B79EF06F0915107089A
:1015D000D8A40AD1070E906F922DCDD08F5102085A
:1015E00075E10101046B1E0E036F0001A4EC04F011
:1015F00001C0B5F0B52D01D01BD08A6BB5510A08DA
:1016000008E141C002F1F30E0101036F0001CAECD1
:1016100003F0B5510B0808E141C002F1F40E0101DD
:10162000036F0001CAEC03F0040E916F79EF06F02E
:10163000A4C0F9F0F66BF76BF86BA5C000F1FE6B78
:10164000FF6B0101016B0001FE51F627FF51F723EB
:10165000010100510001F823010101510001F923AA
:10166000A6C0FFF0FE6B0101006B016B0001FE5193
:10167000F627FF51F723010100510001F823010172
:1016800001510001F9230101016B006B0001FF6BA7
:10169000A7C0FEF0FE51F627FF51F72301010051CC
:1016A0000001F823010101510001F9237150F65F97
:1016B0007250F75B7350F85B7450F95BF9C0A0F09F
:1016C000F8C0A1F0F7C0A2F0F6C0A3F0010EAA5D29
:1016D000050DF3CF02F10101326BB60E316F02C17D
:1016E00033F1050E346F000150EC04F0B6C0C0F0C9
:1016F000C051800B03E1C051080B0DE08A6B41C063
:1017000002F1F10E0101036F0001CAEC03F0040EB7
:10171000916F79EF06F00101036BB70E026F056B55
:10172000A00E046F040E066F0001EDEC05F001C081
:10173000B5F0B52D01D011D08A6B41C002F1F20E87
:101740000101036F0001CAEC03F0B251F90801E393
:10175000B22B040E916F79EF06F0B26B8A6B41C029
:1017600002F1A00E0101036F0001CAEC03F01E0E8E
:10177000926F79EF06F092511E081CE1AA2D05D058
:1017800094928B929C6BC80E9B6FAA51020805E144
:1017900094968B969C6BC80E9B6FAA51030806E12A
:1017A00094988B88010E9C6F2C0E9B6F1F0E926F6E
:1017B00079EF06F092511F0817E19B5313E19C53F8
:1017C00011E1AA2D02D094928B82AA51020802E163
:1017D00094968B86AA51030802E194988B98040E84
:0E17E000916F926B79EF06F079EF06F003003F
:020000040030CA
:0E00000000220D0C0001810000400FE00F40B7
:00000001FF
;PIC18F252
;CRC=F114  CREATED="22-Sep-22 15:05"
